:100000000C9446000C9465000C9465000C946500FB
:100010000C9465000C9465000C9465000C946500CC
:100020000C9465000C9465000C9465000C946500BC
:100030000C9465000C948F030C9465000C9465007F
:100040000C9465000C9465000C9465000C9465009C
:100050000C9465000C9465000C9465000C9465008C
:100060000C9465000C9465000C9465000C9465007C
:100070000C9465000C9465000C9465000C9465006C
:100080000C9465000C9465000C94650011241FBE4F
:10009000CFEFD0E4DEBFCDBF11E0A0E0B1E0E6E9F4
:1000A000FBE000E00BBF02C007900D92A432B10745
:1000B000D9F721E0A4E2B1E001C01D92A134B2075A
:1000C000E1F70E9452040C94C9050C940000CF93F0
:1000D000DF93CDB7DEB781E00E948E000000DF9194
:1000E000CF910895CF93DF93CDB7DEB784E690E04C
:1000F0000E94320188E30E948E0086E00E948E00FA
:100100008FE00E948E0081E00E948E008AE090E0E5
:100110000E9432010000DF91CF910895CF93DF93C9
:100120001F92CDB7DEB7898382E290E022E230E011
:10013000F90120812F7BFC0120838BE290E0298153
:10014000FC01208382E290E022E230E0F90120818C
:100150002068FC012083000082E290E022E230E08F
:10016000F90120812F77FC01208382E090E00E943A
:10017000320100000F90DF91CF910895CF93DF936C
:100180001F92CDB7DEB7898382E290E022E230E0B1
:10019000F90120812064FC0120838BE290E0298119
:1001A000FC01208382E290E022E230E0F90120812C
:1001B0002068FC012083000082E290E022E230E02F
:1001C000F90120812F77FC01208381E090E00E94DB
:1001D000320100000F90DF91CF910895CF93DF930C
:1001E00000D000D0CDB7DEB78A837C836B830E94BA
:1001F00067008A81898311C0898191E0980F998372
:100200000E941B018B819C819C012F5F3F4F3C838F
:100210002B83FC0180810E94BE008B819C81FC01AC
:100220008081882349F700000F900F900F900F9066
:10023000DF91CF910895CF93DF931F92CDB7DEB7B3
:1002400089838981813128F4898181580E948E00B7
:1002500004C0898181550E948E0000000F90DF91BB
:10026000CF910895CF93DF9300D000D000D0CDB7C9
:10027000DEB79E838D831A82198213C01C821B8273
:1002800006C000008B819C8101969C838B838B81AF
:100290009C8187309340ACF389819A8101969A833F
:1002A000898329813A818D819E812817390734F30A
:1002B000000026960FB6F894DEBF0FBECDBFDF91CB
:1002C000CF910895CF93DF9300D01F92CDB7DEB7C3
:1002D00089837B836A8389818A3031F48A819B8117
:1002E000BC018DE00E94620180EC90E0FC01808105
:1002F000882F90E080729927892BB1F386EC90E0EB
:100300002981FC01208380E090E00F900F900F90F6
:10031000DF91CF910895CF93DF9300D01F92CDB797
:10032000DEB789836A834B838B81882371F08A814E
:10033000282F30E081E090E002C0880F991F2A95B5
:10034000E2F7982F8981892B0EC08A81282F30E00F
:1003500081E090E002C0880F991F2A95E2F7982F5C
:100360009095898189230F900F900F90DF91CF9105
:100370000895CF93DF9300D0CDB7DEB789836A832A
:100380008A81282F30E081E090E002C0880F991F19
:100390002A95E2F7982F898189230F900F90DF919A
:1003A000CF9108950F931F93CF93DF93CDB7DEB70F
:1003B00008E210E040E064E08FEF0E948B01F8015A
:1003C0008083000086E290E0FC018081809560E0FF
:1003D0000E94B901882311F081E3D3C086E290E046
:1003E000FC018081809561E00E94B901882311F0B1
:1003F00084E3C7C086E290E0FC018081809562E0E2
:100400000E94B901882311F087E3BBC086E290E027
:10041000FC018081809563E00E94B901882311F07E
:100420008AE2AFC008E210E040E065E08FEF0E9492
:100430008B01F8018083000086E290E0FC0180815E
:10044000809560E00E94B901882311F082E399C091
:1004500086E290E0FC018081809561E00E94B90114
:10046000882311F085E38DC086E290E0FC01808155
:10047000809562E00E94B901882311F088E381C071
:1004800086E290E0FC018081809563E00E94B901E2
:10049000882311F080E375C008E210E040E066E0D8
:1004A0008FEF0E948B01F8018083000086E290E0CC
:1004B000FC018081809560E00E94B901882311F0E1
:1004C00083E35FC086E290E0FC018081809561E07B
:1004D0000E94B901882311F086E353C086E290E0C0
:1004E000FC018081809562E00E94B901882311F0AF
:1004F00089E347C086E290E0FC018081809563E05B
:100500000E94B901882311F083E23BC008E210E0A9
:1005100040E067E08FEF0E948B01F80180830000CC
:1005200086E290E0FC018081809560E00E94B90144
:10053000882311F081E425C086E290E0FC018081EF
:10054000809561E00E94B901882311F082E419C00E
:1005500086E290E0FC018081809562E00E94B90112
:10056000882311F083E40DC086E290E0FC018081D5
:10057000809563E00E94B901882311F084E401C0F2
:1005800080E0DF91CF911F910F910895CF93DF937A
:10059000CDB7DEB72C970FB6F894DEBF0FBECDBF38
:1005A0006D837E838F83988729873A874B875C8703
:1005B0008D819E81AF81B88529853A854B855C8583
:1005C000BC01CD010E94A705DC01CB0189839A8380
:1005D000AB83BC8389819A81AB81BC81892B8A2BB7
:1005E0008B2B29F489859A85AB85BC8511C08985BB
:1005F0009A85AB85BC858D839E83AF83B8878981BF
:100600009A81AB81BC8189879A87AB87BC87D0CF21
:10061000BC01CD012C960FB6F894DEBF0FBECDBF46
:10062000DF91CF910895CF93DF9300D000D0CDB765
:10063000DEB769837A838B839C8389819A81AB81BE
:10064000BC8180930E0190930F01A0931001B09391
:10065000110180910E0190910F01A0911001B091B4
:1006600011018093250190932601A0932701B09357
:10067000280100000F900F900F900F90DF91CF9105
:100680000895CF93DF93CDB7DEB781E890E02BE0FC
:10069000FC01208388E890E02DE730E0FC01318305
:1006A00020838FE690E022E0FC01208384E890E044
:1006B000FC011182108280910E0190910F01A09196
:1006C0001001B09111018093250190932601A09310
:1006D0002701B09328018FE590E02FE530E0F90184
:1006E00020812068FC0120830000DF91CF910895D4
:1006F000CF93DF93CDB7DEB781E890E0FC011082A5
:100700000000DF91CF910895CF93DF93CDB7DEB78F
:1007100081E0809324010000DF91CF9108951F9222
:100720000F9200905F000F92112400905B000F92D7
:100730002F933F934F935F936F937F938F939F93E9
:10074000AF93BF93EF93FF93CF93DF93CDB7DEB714
:100750008091250190912601A0912701B091280157
:100760000197A109B1098093250190932601A093D7
:100770002701B09328018091250190912601A09135
:100780002701B0912801892B8A2B8B2B91F40E9491
:10079000840380910E0190910F01A0911001B091FE
:1007A00011018093250190932601A0932701B09316
:1007B00028010000DF91CF91FF91EF91BF91AF91A0
:1007C0009F918F917F916F915F914F913F912F9169
:1007D0000F9000925B000F9000925F000F901F90AF
:1007E0001895CF93DF9300D0CDB7DEB79A83898376
:1007F00089819A81892B19F41A82198203C01A827D
:100800001982000089819A81892B29F40E94D201E2
:1008100080932A01000080912A01882321F0809191
:100820002A018093290189819A810F900F90DF918D
:10083000CF910895CF93DF9300D0CDB7DEB79A83E1
:10084000898389819A81892B19F41A82198203C0BC
:100850001A821982000089819A81892BE1F48091A2
:1008600023010E941B0180912901882399F0809126
:1008700029010E94BE0080912301803130F48091D3
:1008800023018F5F8093230103C081E080932301C4
:1008900010922901000089819A810F900F90DF91B9
:1008A000CF9108950F931F93CF93DF93CDB7DEB70A
:1008B0002D970FB6F894DEBF0FBECDBF84E290E057
:1008C0002FEFFC01208385E290E0FC0110828AE298
:1008D00090E02FEFFC0120838BE290E0FC0110827E
:1008E00081E290E02FEFFC01208382E290E0FC01A6
:1008F000108287E290E020EFFC01208388E290E004
:100900002FE0FC0120838BE291E09B878A8786E3BE
:1009100091E09D878C8782E090E09C838B838FEFB2
:100920008D8388EC90E0A0E0B0E08E839F83A88761
:10093000B9878D8180932B0188EC90E0A0E0B0E036
:1009400080932C0190932D01A0932E01B0932F0141
:1009500080912C0190912D01A0912E01B0912F0139
:100960008093300190933101A0933201B093330111
:1009700081EF93E090933501809334018D818093D2
:10098000360188EC90E0A0E0B0E0809337019093CE
:100990003801A0933901B0933A01809137019091C9
:1009A0003801A0913901B0913A0180933B019093B5
:1009B0003C01A0933D01B0933E018AE194E0909305
:1009C000400180933F018E819F81A885B985BC013C
:1009D000CD010E9413030E9441030E94720062E154
:1009E00071E081E00E94EE001A821982A0C0898124
:1009F0009A81880F991F9E012F5F3F4F820F931F8F
:100A00000996FC0180819181FC0125813681478115
:100A1000508589819A81880F991FBE016F5F7F4F32
:100A2000860F971F0996FC0180819181FC018181CD
:100A30009281A381B481281739074A075B0708F41C
:100A400045C089819A81880F991F9E012F5F3F4F72
:100A5000820F931F0996FC010081118189819A817F
:100A6000880F991F9E012F5F3F4F820F931F09969A
:100A7000FC0180819181FC012185328589819A81E7
:100A8000880F991FAE014F5F5F4F840F951F099626
:100A9000FC0180819181FC018081082E000C990B62
:100AA000F9010995F801808389819A81880F991F3E
:100AB0009E012F5F3F4F820F931F0996FC0180819B
:100AC0009181FC01158216821782108689819A8194
:100AD000880F991F9E012F5F3F4F820F931F09962A
:100AE000FC016081718189819A81880F991F9E0123
:100AF0002F5F3F4F820F931F0996FC0180819181E8
:100B0000FC0125813681478150858E819F81A88592
:100B1000B985820F931FA41FB51FFB0185839683A0
:100B2000A783B08789819A8101969A8389832981D5
:100B30003A818B819C812817390708F458CF00002F
:100B4000809124018823E1F3109224014DCFA1E28A
:100B50001A2EAA1BBB1BFD010DC0AA1FBB1FEE1F37
:100B6000FF1FA217B307E407F50720F0A21BB30B82
:100B7000E40BF50B661F771F881F991F1A9469F7FE
:100B800060957095809590959B01AC01BD01CF015A
:060B90000895F894FFCF68
:100B960000000002000000006201000000000100E9
:100BA6000000436F6E67726174756C6174696F6E75
:040BB60073210001A6
:00000001FF
