:100000000C9446000C9465000C9465000C946500FB
:100010000C9465000C9465000C9465000C946500CC
:100020000C9465000C9465000C9465000C946500BC
:100030000C9465000C9454020C9465000C946500BB
:100040000C9465000C9465000C9465000C9465009C
:100050000C9465000C9465000C9465000C9465008C
:100060000C9465000C9465000C9465000C9465007C
:100070000C9465000C9465000C9465000C9465006C
:100080000C9465000C9465000C94650011241FBE4F
:10009000CFEFD0E4DEBFCDBF11E0A0E0B1E0EEE3F2
:1000A000FDE000E00BBF02C007900D92AE32B10739
:1000B000D9F721E0AEE2B1E001C01D92AB36B20744
:1000C000E1F70E94BC040C949D060C940000CF93B1
:1000D000DF93CDB7DEB781E00E948E000000DF9194
:1000E000CF910895CF93DF93CDB7DEB784E690E04C
:1000F0000E94320188E30E948E0086E00E948E00FA
:100100008FE00E948E0081E00E948E008AE090E0E5
:100110000E9432010000DF91CF910895CF93DF93C9
:100120001F92CDB7DEB7898382E290E022E230E011
:10013000F90120812F7BFC0120838BE290E0298153
:10014000FC01208382E290E022E230E0F90120818C
:100150002068FC012083000082E290E022E230E08F
:10016000F90120812F77FC01208382E090E00E943A
:10017000320100000F90DF91CF910895CF93DF936C
:100180001F92CDB7DEB7898382E290E022E230E0B1
:10019000F90120812064FC0120838BE290E0298119
:1001A000FC01208382E290E022E230E0F90120812C
:1001B0002068FC012083000082E290E022E230E02F
:1001C000F90120812F77FC01208381E090E00E94DB
:1001D000320100000F90DF91CF910895CF93DF930C
:1001E00000D000D0CDB7DEB78A837C836B830E94BA
:1001F00067008A81898311C0898191E0980F998372
:100200000E941B018B819C819C012F5F3F4F3C838F
:100210002B83FC0180810E94BE008B819C81FC01AC
:100220008081882349F700000F900F900F900F9066
:10023000DF91CF910895CF93DF931F92CDB7DEB7B3
:1002400089838981813128F4898181580E948E00B7
:1002500004C0898181550E948E0000000F90DF91BB
:10026000CF910895CF93DF9300D000D000D0CDB7C9
:10027000DEB79E838D831A82198213C01C821B8273
:1002800006C000008B819C8101969C838B838B81AF
:100290009C8187309340ACF389819A8101969A833F
:1002A000898329813A818D819E812817390734F30A
:1002B000000026960FB6F894DEBF0FBECDBFDF91CB
:1002C000CF910895CF93DF9300D01F92CDB7DEB7C3
:1002D00089837B836A8389818A3031F48A819B8117
:1002E000BC018DE00E94620180EC90E0FC01808105
:1002F000882F90E080729927892BB1F386EC90E0EB
:100300002981FC01208380E090E00F900F900F90F6
:10031000DF91CF910895CF93DF93CDB7DEB72C97C0
:100320000FB6F894DEBF0FBECDBF6D837E838F8383
:10033000988729873A874B875C878D819E81AF811B
:10034000B88529853A854B855C85BC01CD010E9425
:100350007B06DC01CB0189839A83AB83BC838981D3
:100360009A81AB81BC81892B8A2B8B2B29F48985BF
:100370009A85AB85BC8511C089859A85AB85BC857E
:100380008D839E83AF83B88789819A81AB81BC813D
:1003900089879A87AB87BC87D0CFBC01CD012C96CB
:1003A0000FB6F894DEBF0FBECDBFDF91CF91089599
:1003B000CF93DF9300D000D0CDB7DEB769837A83C7
:1003C0008B839C8389819A81AB81BC8180930E0150
:1003D00090930F01A0931001B093110180910E0131
:1003E00090910F01A0911001B091110180932F0104
:1003F00090933001A0933101B093320100000F902F
:100400000F900F900F90DF91CF910895CF93DF93CE
:10041000CDB7DEB781E890E02BE0FC01208388E8CF
:1004200090E02DE730E0FC01318320838FE690E0FF
:1004300022E0FC01208384E890E0FC01118210821C
:1004400080910E0190910F01A0911001B0911101C6
:1004500080932F0190933001A0933101B09332012A
:100460008FE590E02FE530E0F90120812068FC0164
:1004700020830000DF91CF910895CF93DF93CDB714
:10048000DEB781E890E0FC0110820000DF91CF919F
:100490000895CF93DF93CDB7DEB781E080932E012F
:1004A0000000DF91CF9108951F920F9200905F009E
:1004B0000F92112400905B000F922F933F934F9364
:1004C0005F936F937F938F939F93AF93BF93EF93BC
:1004D000FF93CF93DF93CDB7DEB780912F0190913B
:1004E0003001A0913101B09132010197A109B10908
:1004F00080932F0190933001A0933101B09332018A
:1005000080912F0190913001A0913101B091320181
:10051000892B8A2B8B2B91F40E94490280910E012A
:1005200090910F01A0911001B091110180932F01C2
:1005300090933001A0933101B09332010000DF911C
:10054000CF91FF91EF91BF91AF919F918F917F914B
:100550006F915F914F913F912F910F9000925B00AF
:100560000F9000925F000F901F901895CF93DF932C
:1005700000D000D0CDB7DEB79C838B8386E290E0BD
:10058000FC018081882F90E08170992721E0892BE0
:1005900009F020E0822F90E09A8389838B819C81EF
:1005A0008130910579F08230910549F1892BA9F5C7
:1005B00081E0809316011092330181E090E09C83EA
:1005C0008B832EC089819A81892BA1F0809116019D
:1005D000882F90E08170992721E0892B09F020E095
:1005E000822F809316011092330182E090E09C8369
:1005F0008B8316C081E090E09C838B8311C089813E
:100600009A81892B29F082E090E09C838B8308C03B
:1006100081E090E09C838B8303C01C821B820000DE
:100620008B819C810F900F900F900F90DF91CF9155
:100630000895CF93DF9300D000D000D0CDB7DEB7C0
:100640009E838D8386E290E0FC018081882F90E07C
:100650008095909582709927959587959A8389833F
:1006600086E290E0FC018081882F90E08095909553
:100670008470992795958795959587959C838B830D
:100680008D819E818130910569F08230910559F10B
:10069000892BD9F581E08093120181E090E09E835F
:1006A0008D8337C080911601882391F589819A81C5
:1006B000892B41F081E08093120182E090E09E83DB
:1006C0008D8326C08B819C81892B41F081E18093B1
:1006D000120182E090E09E838D831AC081E090E059
:1006E0009E838D8315C089819A81892B21F48B810A
:1006F0009C81892B29F082E090E09E838D8309C044
:1007000081E090E09E838D8304C01E821D8201C023
:1007100000008D819E8126960FB6F894DEBF0FBE35
:10072000CDBFDF91CF910895CF93DF9300D0CDB7A8
:10073000DEB79A83898389819A81009719F001979E
:1007400061F010C080E18093130189E1809314016E
:1007500081E090E09A83898308C081E090E09A83E9
:10076000898303C01A821982000089819A810197C6
:10077000F9F4809116018823D1F48091130182301D
:1007800030F08091130181508093130103C080E108
:100790008093130180911401823130F08091140113
:1007A00081508093140103C080E280931401000003
:1007B00089819A810F900F90DF91CF910895CF9307
:1007C000DF9300D0CDB7DEB79A83898389819A8180
:1007D000009719F0019741F00CC01092330181E0AD
:1007E00090E09A83898308C081E090E09A838983AE
:1007F00003C01A821982000089819A810197E1F46D
:100800009091120180911301981731F0909112018B
:1008100080911401981779F481E08093330181E08D
:100820008093160180E18093130189E18093140184
:1008300081E080931201000089819A810F900F90CE
:10084000DF91CF910895CF93DF9300D0CDB7DEB77E
:100850009A83898389819A818130910551F0823010
:100860009105E1F0892B51F581E090E09A8389832D
:1008700028C080913301882329F481E090E09A8395
:1008800089831FC00E94670067E171E083E00E94D6
:10089000EE0082E090E09A83898313C08091330157
:1008A000882339F40E94670081E090E09A8389836D
:1008B00008C082E090E09A83898303C01A8219827B
:1008C000000089819A81019709F04FC0809113013E
:1008D000803149F0809113018F5F0E941B0180E2FB
:1008E0000E94BE0006C081E00E941B0180E20E94BF
:1008F000BE00809113010E941B01809115010E948E
:10090000BE0080911401803249F0809114018F5F04
:100910000E941B0180E20E94BE0006C081E10E948D
:100920001B0180E20E94BE00809114010E941B0105
:10093000809115010E94BE0080911201813039F42E
:1009400081E10E941B0180E20E94BE0006C081E09E
:100950000E941B0180E20E94BE00809112010E9451
:100960001B0180E30E94BE00000089819A810F90E4
:100970000F90DF91CF9108950F931F93CF93DF9343
:10098000CDB7DEB763970FB6F894DEBF0FBECDBF0D
:1009900084E290E02FEFFC01208385E290E0FC01EF
:1009A00010828AE290E02FEFFC0120838BE290E03E
:1009B000FC01108281E290E02FEFFC01208382E2B3
:1009C00090E0FC01108287E290E0FC01108288E256
:1009D00090E02FEFFC0120838AE0E3E2F1E0DE010A
:1009E0001A9601900D928A95E1F785E090E09C833C
:1009F0008B838FEF8D838AE090E0A0E0B0E08E8360
:100A00009F83A887B9878D81809334018AE090E025
:100A1000A0E0B0E08093350190933601A0933701B8
:100A2000B09338018091350190913601A091370142
:100A3000B09138018093390190933A01A0933B0122
:100A4000B0933C0186EB92E090933E0180933D0190
:100A50008D8180933F018AE090E0A0E0B0E0809338
:100A6000400190934101A0934201B09343018091D2
:100A7000400190914101A0914201B09143018093C6
:100A8000440190934501A0934601B093470189E149
:100A900093E090934901809348018D8180934A01AE
:100AA00082E390E0A0E0B0E080934B0190934C0192
:100AB000A0934D01B0934E0180914B0190914C0158
:100AC000A0914D01B0914E0180934F019093500140
:100AD000A0935101B093520184E993E090935401A3
:100AE000809353018D818093550182E390E0A0E0D3
:100AF000B0E08093560190935701A0935801B093B2
:100B000059018091560190915701A0915801B091DF
:100B1000590180935A0190935B01A0935C01B093BB
:100B20005D018FED93E090935F0180935E018D8175
:100B3000809360018AE090E0A0E0B0E080936101E2
:100B400090936201A0936301B0936401809161016D
:100B500090916201A0916301B0916401809365015D
:100B600090936601A0936701B093680183E294E0DB
:100B700090936A01809369018E819F81A885B985D0
:100B8000BC01CD010E94D8010E9406020E947200A1
:100B90001A821982A0C089819A81880F991F9E01AB
:100BA0002F5F3F4F820F931F0996FC018081918137
:100BB000FC01258136814781508589819A81880F82
:100BC000991FBE016F5F7F4F860F971F0996FC012B
:100BD00080819181FC0181819281A381B481281758
:100BE00039074A075B0708F445C089819A81880F55
:100BF000991F9E012F5F3F4F820F931F0996FC01A3
:100C00000081118189819A81880F991F9E012F5F30
:100C10003F4F820F931F0996FC0180819181FC0157
:100C20002185328589819A81880F991FAE014F5F96
:100C30005F4F840F951F0996FC0180819181FC0113
:100C40008081082E000C990BF9010995F801808329
:100C500089819A81880F991F9E012F5F3F4F820FD4
:100C6000931F0996FC0180819181FC0115821682F7
:100C70001782108689819A81880F991F9E012F5FA4
:100C80003F4F820F931F0996FC016081718189811A
:100C90009A81880F991F9E012F5F3F4F820F931FEC
:100CA0000996FC0180819181FC0125813681478173
:100CB00050858E819F81A885B985820F931FA41FBF
:100CC000B51FFB0185839683A783B08789819A81AD
:100CD00001969A83898329813A818B819C81281787
:100CE000390708F458CF000080912E018823E1F3E2
:100CF00010922E014DCFA1E21A2EAA1BBB1BFD01A3
:100D00000DC0AA1FBB1FEE1FFF1FA217B307E407EA
:100D1000F50720F0A21BB30BE40BF50B661F771F42
:100D2000881F991F1A9469F7609570958095909522
:0E0D30009B01AC01BD01CF010895F894FFCFE7
:100D3E00000000020000000062010000000001003F
:100D4E0000000110192301596F75206C6F73652017
:0E0D5E003A280034013F014A015501600100AE
:00000001FF
